:020000040800F2
:10000000080B0020790200088F430008C13A00085D
:100010008D4300087D040008614F000800000000C7
:10002000000000000000000000000000234800085D
:1000300009050008000000002148000825480008C4
:10004000930200089302000893020008930200083C
:10005000930200089302000893020008930200082C
:10006000930200089302000893020008810400082C
:100070008D04000899040008930200089302000808
:10008000930200089302000871040008930200081C
:1000900093020008930200089302000893020008EC
:1000A00093020008930200089302000893020008DC
:1000B000AD4800089302000893020008930200086C
:1000C00093020008930200089302000893020008BC
:1000D0009302000893020008554F0008930200089D
:1000E000930200089302000893020008930200089C
:1000F000930200089302000893020008930200088C
:10010000930200089302000893020008930200087B
:10011000930200089302000893020008930200086B
:10012000930200089302000893020008930200085B
:10013000930200089302000893020008930200084B
:10014000930200089302000893020008413400085B
:10015000930200089302000893020008930200082B
:10016000930200089302000893020008930200081B
:100170009302000893020008A148000893020008B7
:1001800093020008930200089302000893020008FB
:100190009302000800000000930200089302000888
:1001A00093020008930200089302000893020008DB
:1001B00093020008930200089302000893020008CB
:1001C00093020008930200089302000893020008BB
:1001D000930200089302000800F002F800F03CF8D7
:1001E0000AA090E8000C82448344AAF10107DA4592
:1001F00001D100F031F8AFF2090EBAE80F0013F0A8
:10020000010F18BFFB1A43F001031847985600006E
:10021000B8560000103A24BF78C878C1FAD85207FF
:1002200024BF30C830C144BF04680C607047000070
:100230000023002400250026103A28BF78C1FBD8EF
:10024000520728BF30C148BF0B6070471FB504F08C
:10025000F7FE1FBD10B510BD00F0CFF81146FFF737
:10026000F5FF04F0B3FE00F0EDF803B4FFF7F2FF82
:1002700003BC00F0F5F80000094880470948004732
:10028000FEE7FEE7FEE7FEE7FEE7FEE7FEE7FEE746
:10029000FEE7FEE704480549054A064B70470000A3
:1002A00091480008D901000808050020080B00202B
:1002B000080700200807002053EA020C00F06980BC
:1002C0002DE9F04B4FF00006002B1FBFB3FA83F56A
:1002D00003FA05F424FA05F65E4012BF1643B2FA9B
:1002E00082F502FA05F4C5F120051EBF22FA05FCCD
:1002F00044EA0C04203556EA044C4FEA144418BF73
:10030000641C4FF000084FF00009904271EB030CA1
:1003100039D3002919BFB1FA81F701FA07F6B0FA0B
:1003200080F700FA07F6C7F120071EBF20FA07FC86
:1003300046EA0C062037B6FBF4FCA7EB0507103F96
:1003400007F01F0BCBF120060CFA0BFB2CFA06F67C
:1003500044BFB3460026202FA4BF5E464FF0000BDB
:100360005BEA060C08BF4FF0010B19EB0B09ABFB66
:10037000027C48EB0608C01B06FB02CC0BFB03CC3F
:1003800071EB0C01C1E70B46024641464846BDE809
:10039000F08B13B54FF000004FF00001AFF3008079
:1003A000BDE81C4070474FF0000200B5134694466C
:1003B0009646203922BFA0E80C50A0E80C50B1F1BD
:1003C0002001BFF4F7AF090728BFA0E80C5048BFD1
:1003D0000CC05DF804EB890028BF40F8042B08BF6F
:1003E000704748BF20F8022B11F0804F18BF00F86B
:1003F000012B7047704770477047754600F02CF826
:10040000AE4605006946534620F00700854618B001
:1004100020B5FFF73FFFBDE820404FF000064FF04A
:1004200000074FF000084FF0000B21F00701AC4629
:10043000ACE8C009ACE8C009ACE8C009ACE8C00948
:100440008D46704710B50446AFF300802046BDE8E6
:100450001040FFF70ABF000000487047A8040020C2
:1004600001491820ABBEFEE72600020070470000DD
:10047000014800F039BB000094000020FEE70000B6
:10048000014800F074BE000000010020014800F0A7
:100490006EBE0000B0020020014800F068BE0000FF
:1004A000F00300200D4902688A4201D20C4901E0A4
:1004B0000B492031D2B21423083AB2FBF3F2436C59
:1004C00002F01F0223F003031944816404498031C0
:1004D000C164012191400165704700000804024099
:1004E000000802400179074A02EB81024265054A91
:1004F0004432491E826501F01F0201219140C1650D
:1005000070470000FC080240704772B6FEE7704773
:1005100070477047704770472DE9F04F044690F8D8
:1005200058009BB00F464FF0000B012812D001205D
:1005300084F8580000261796189620684FF0A048B7
:10054000DFF81C91DFF81CA1474D404506D1284635
:10055000009508E002201BB0BDE8F08F48450AD1A5
:100560005046CDF800A003F030FC0090206803F066
:100570002CFC40B109E0E06D40F02000E06584F81B
:1005800058600120E7E7009850B1E06D40F020008E
:10059000E0654FF0010B00BF84F858605846DAE779
:1005A00020684146884201D0A84201D12F4800E08E
:1005B0002F48D7F800C02F4B40F61F72BCF1000F38
:1005C0002DD0D0F808C094F838802CF4604C4CEA58
:1005D000483CD7F804804CEA080CC0F808C0D4F8AE
:1005E00000C08C4501D0AC4504D18968AB6801F0EE
:1005F000010109E0D9F80810DAF8085001F001010A
:1006000005F001059B68294303F001031943C3D199
:10061000BB68396819438368934319431DE08768B1
:1006200027F46047876027688F4201D0AF4204D12A
:100630008968AB6801F0010109E0D9F80810DAF81F
:10064000085001F0010105F001059B68294303F002
:1006500001031943A0D18168914381609CE70000A8
:10066000000400500005005000010050000300503D
:1006700000070050000600502DE9F84F00270446FF
:10068000009790F85800DFF81C840D46B946012801
:1006900011D0012684F85860206803F092FB60B105
:1006A000E06D40F02000E0655FF0010784F85890AD
:1006B0003846BDE8F88F0220FBE7D5E900210C237E
:1006C000206803EA91131844036B01F01F014FF0F7
:1006D0001F0C0CFA01FCC2F3846223EA0C038A406B
:1006E00013430363206803F06CFB8246206803F029
:1006F00064FB5AEA00003CD1AA6829682068B2F17C
:10070000004F37D003F06DFB2068416921F00041B4
:10071000416120686969C268C2F3C1025200914018
:100720002A69042A31D000EB82002B68026EDFF8C0
:1007300078C303F0F84302EA0C020B431A4342F079
:100740000041016622682869A96902EB8000026EF7
:1007500022F080720A430266297F226828690129F3
:1007600010D0002102EB8000026E22F000720A43DA
:1007700002667DE0002203F034FB2068416941F00D
:100780000041C5E74FF00071ECE7002103F00FFBDB
:10079000400320684FF0000172D003F008FB90FA8C
:1007A000A0F0B0FA80F1286842036ED090FAA0F071
:1007B000B0FA80F0814204D100221146206803F093
:1007C0001FFB0121206803F0F2FA400320684FF07C
:1007D00001015DD003F0EBFA90FAA0F0B0FA80F1DD
:1007E0002868420359D090FAA0F0B0FA80F0814214
:1007F00004D100220121206803F002FB02212068BD
:1008000003F0D5FA400320684FF0020148D003F00E
:10081000CEFA90FAA0F0B0FA80F12868420344D0F2
:1008200090FAA0F0B0FA80F0814204D100220221B7
:10083000206803F0E5FA0321206803F0B8FA4003CA
:1008400020684FF0030133D003F0B1FA90FAA0F022
:10085000B0FA80F1286842032FD090FAA0F0B0FAE5
:1008600080F0814204D100220321206803F0C8FAFD
:100870002068816811F0010F22D0ACE000E004E0B4
:1008800003F095FAC0F384618DE7C0F3846091E7CB
:1008900003F08DFAC0F38461A2E7C0F38460A6E799
:1008A00003F085FAC0F38461B7E7C0F38460BBE767
:1008B00003F07DFAC0F38461CCE7C0F38460D0E735
:1008C0002A7B296850F8B03FC1F3120C23EA0C03CD
:1008D00002F0180C754A22FA0CF20A401343036026
:1008E000E968414577D1286841031CD090FAA0F10E
:1008F000B1FA81F1491C01F01F0109294FEA403189
:1009000032D8002912D000BF90FAA0F1B1FA81F1DB
:1009100001F1010101F01F0106FA01F609D100BF42
:10092000C0F3846109E0C0F38461E3E7C0F384614C
:10093000EEE790FAA0F1B1FA81F101F1010101F0C5
:100940001F0146EA816102D1C0F3846003E090FA9E
:10095000A0F0B0FA80F000F1010000F01F0000EB01
:10096000400041EA005132E000290ED090FAA0F197
:10097000B1FA81F101F1010101F01F0106FA01F65E
:1009800006D100BFC0F3846106E0C0F38461F1E7E3
:1009900090FAA0F1B1FA81F101F1010101F01F011A
:1009A00046EA816102D1C0F3846003E090FAA0F0CE
:1009B000B0FA80F000F1010000F01F003C4A00EBAB
:1009C000400002EB005041EA000141F00071AA68CA
:1009D000206803F006FA37482B6803423FF466AEFE
:1009E00021684FF0A04C3448344E354D614501D05C
:1009F000A94201D1024600E032469268DFF8C48085
:100A000002F0E072434503D0DFF8BC80434521D1BA
:100A10005FEA02281ED4614506D02C4B99427FF430
:100A200045AEA94200D0304642F40001826822F06F
:100A3000E0720A438260264826490068B0FBF1F064
:100A4000401C00EB4000800000E0401E00900028A9
:100A5000FBD12BE6DFF8808043450FD15FEAC21857
:100A60000CD4A94202D11D4B9942F2D0614502D06B
:100A7000A94200D0304642F080710CE0DFF860807F
:100A80004345E6D15302E4D4A942E2D0614500D007
:100A9000304642F48001826822F0E0720A438260AC
:100AA00004E6000000007F4000F0FF03FFFF0700A6
:100AB000000020FE000008800003005000070050E6
:100AC00000010050000021C31000C090000600503B
:100AD00090000020400D0300000052C700050050A8
:100AE000000084CB704770472DE9F84F044600683A
:100AF000066845684FF0A048DFF89092404501D065
:100B0000484501D1A24800E0A248806800F01F07D4
:100B1000B0070ED5A8070CD5E06DC00603D4E06D74
:100B200040F40060E0652046FFF7F1FC21680220F8
:100B30000860DFF864B2DFF864A2700701D56807C7
:100B400003D430073FD528073DD5E06DC00603D458
:100B5000E06D40F40070E065206803F03AF960B39E
:100B60002068484501D1424604E0584501D152462B
:100B700000E00246824208D03FB1052F05D0092F80
:100B800003D0484503D1414606E0C16805E0584519
:100B900001D1514600E00146C96889040DD40168BD
:100BA00009070AD503F00DF958B3E06D40F01000C5
:100BB000E065206E40F0010020662046FFF792FFBE
:100BC00021680C200860B00601D5A80603D4700681
:100BD0005FD568065DD5E06DC00603D4E06D40F4D6
:100BE0000050E0652068C16C11F4C07F1AD000216C
:100BF000009103F0EEF802462068484514D14346C0
:100C000017E02068416821F00C014160E06D20F49C
:100C10008070E065E06DC004CFD4E06D40F001006D
:100C2000E065CAE70121E3E7584501D1534600E0FA
:100C30000346834208D03FB1062F05D0072F03D0CB
:100C4000484503D1414606E0C16805E0584501D159
:100C5000514600E00146C968009BA3B18B0102D553
:100C60008AB18A040FD4026852060CD589020AD4CC
:100C700003F0A3F8F0B3E06D40F01000E065206EE3
:100C800040F0010020662046FFF742FC216860200A
:100C9000086030060BD5280609D5E06D40F4803099
:100CA000E065204600F094F9216880200860F00596
:100CB0000CD5E8050AD5E06D40F40030E06520462B
:100CC000FFF728FC21684FF480700860B0050CD550
:100CD000A8050AD5E06D40F48020E0652046FFF7C6
:100CE0001AFC21684FF400700860F00631D5E80660
:100CF0002FD500E009E0E06BE8B12068EFB3404594
:100D000001D0484512D1224811E02068416821F005
:100D100060014160E06D20F48050E065E06DC00549
:100D2000B1D4E06D40F00100E065ACE7194880689F
:100D300000F4604050B1E06D40F48060E065206EEA
:100D400040F0020020662046FFF7CDFE216810200B
:100D50000860700517D5680515D5E06D40F4804032
:100D6000E065206E40F00800206621684FF4806046
:100D700008602046BDE8F84F00E001E0FFF7C9BB7E
:100D8000C068C007D6E7BDE8F88F0000000100503A
:100D90000003005000070050000500500004005000
:100DA000F8B54FF0000504002E46009502D0E06D26
:100DB00010B107E00120F8BD204600F00BF92666CF
:100DC00084F8586020688168C1F3407119B1816866
:100DD000734A1140816020688168C1F3007189B94C
:100DE0008168704A114041F0805181606E486F49BE
:100DF0000068B0FBF1F04000801C00E0401E009055
:100E00000028FBD120688168C1F3007141B9E16D10
:100E100041F01001E165216E41F0010121660125DB
:100E200002F0CFFFE16DC90600D430B1E06D40F0B3
:100E30001000E06501252846F8BDE06D20F48070C3
:100E400040F00200E0652068816811F0010F27D1B1
:100E50004FF0A043564A984201D0904204D199687D
:100E6000966801F001010AE052498968524E01F08A
:100E70000101B66806F001063143504EB66806F02F
:100E8000010631430CD1984201D0904201D14C4827
:100E900000E04C486168826822F47C120A43826058
:100EA000E168E06B627F0843A16841EA4231084390
:100EB00094F8241040EA0140012904D1218D424ACE
:100EC00002EB41410843E16A29B101F47871226BD8
:100ED000014342EA01002268D1683C4B19400143BA
:100EE000D16020680169626B21F0406111430161AA
:100EF000206802F062FF70BB207F94F838102268EF
:100F0000800340EA4100D16844F20203994301435F
:100F1000D16020690028206801690AD041F480313D
:100F20000161206850F8C01F22696FF30D01114361
:100F300007E021F480310161206850F8C01F6FF391
:100F40000D01016094F8400001280CD0206801696F
:100F500021F001010161606901282068016B21F025
:100F60000F0111D013E0D4E911010843D4E91312A1
:100F70001143084321680A6940F2FC739A43104305
:100F800040F001000861E6E7226A521E1143016346
:100F9000E06D20F0020040F00100E0654BE700004A
:100FA000C0FFFF5FC0FFFF7F90000020400D0300E7
:100FB00000010050000400500005005000060050E1
:100FC00000030050000700500000FEFF0740F0FF44
:100FD0007047000070B59CB00646142115A8FFF7B5
:100FE000E2F954216846FFF7DEF93068B0F1A04F0E
:100FF00044D14FF40040009080031190684601F006
:1010000051F808B1FFF781FA1D49C86C40F400504F
:10101000C864C86C00F400501A90C86C40F001001D
:10102000C864C86C002500F001001A900320CDE9C7
:101030001605159015A94FF0904000F067F9124C75
:10104000104820600520C4E901058020C4E9035050
:10105000400060618000C4E906052046256200F07A
:10106000E3F808B1FFF751FA746500221146122027
:10107000A66200F07FFF122000F06EFF1CB070BD72
:1010800000100240080002400001002010B590F856
:10109000253000210122022B03D00421C16301214C
:1010A00022E003681C6824F00E041C60836C1C683A
:1010B00024F480741C6003681C6824F001041C6024
:1010C00090F84430046C03F01F0302FA03F36360EA
:1010D000D0E913345C60436D33B11C6824F4807430
:1010E0001C60D0E916345C6080F82520002280F86E
:1010F0002420084610BD70B590F825200024012159
:101100002346022A07D00422C26380F8251080F803
:101110002430012429E00268156825F00E051560C9
:101120000268156825F001051560826C156825F4C4
:101130008075156090F84420056C02F01F0201FADA
:1011400002F26A60D0E913255560426D32B115682C
:1011500025F480751560D0E91625556080F82510B6
:1011600080F82430816B01B18847204670BDF0B40F
:10117000016C0C6801680D6890F8442002F01F06AD
:10118000042202FA06F3234211D06B070FD50B6835
:101190009B0603D40B6823F004030B6090F8441003
:1011A00001F01F018A40016C4A60016B1DE00223BF
:1011B00003FA06F727424FF0000C4FF0010218D057
:1011C000AF0716D50C68A40605D40C6824F00A04F1
:1011D0000C6080F8252090F8441001F01F018B402E
:1011E000016C4B6080F824C0C16A00291AD0F0BCA1
:1011F00008470823B340234214D02B0712D50B68AD
:1012000023F00E030B6090F84410036C01F01F01F3
:1012100002FA01F15960C26380F8252080F824C0E9
:10122000416BE2E7F0BC704770B504000CD02B4A6C
:1012300021681420914209D2294A0A44B2FBF0F0F5
:101240008000606427480AE0012070BD234A5242B2
:101250000A44B2FBF0F08000606420480838206443
:10126000022084F825000A6847F6F0708243D4E92A
:1012700002031843D4E904352B431843A3691843E8
:10128000E3691843236A1843104308602046FFF7B8
:1012900009F9A0680025B0F5804F00D16560A16C08
:1012A00020790860D4E9130141606068401E03287A
:1012B00008D82046FFF716F9606D0560D4E91601DD
:1012C000416002E06565A565E565E563012084F898
:1012D000250084F82450002070BD0000080402405E
:1012E000F8FFFDBF0000024070B5044600F038F979
:1012F0000546601C02D004484068044400F030F900
:10130000401BA042FAD370BD840000202DE9F04FAD
:10131000DFF82092002301260324A9F1040B85B0F5
:101320000F2709F1040AABF1040EFAE006FA03F5FF
:101330002A407CD091F804C00CF0030CBCF1010FE2
:1013400002D0BCF1020F26D1D0F808C0CDF800C001
:101350004FEA430C04FA0CF8CDF810C0DDF800C0D9
:101360002CEA080CCDF800C0D1F80C80DDF810C0D4
:1013700008FA0CF8DDF800C048EA0C08C0F808804C
:10138000D0F804C02CEA050C0D79C5F300159D407A
:1013900045EA0C0545600D79ED43AD070ED0C568F3
:1013A0004FEA430804FA08FC25EA0C05D1F808C006
:1013B0000CFA08FC4CEA050CC0F80CC00D7905F0DD
:1013C0000305022D16D1DD0800EB850CCDF808C011
:1013D000DCF820805D074FEAD56C07FA0CF528EAA7
:1013E00005080D6905FA0CF5DDF808C045EA0805A1
:1013F000CCF8205005684FEA430CCDF808C004FA39
:101400000CFC25EA0C0591F804C00CF00308DDF88B
:1014100008C008FA0CF848EA0508C0F800804D68D2
:1014200015F4403F7CD0444DD5F860C000E077E033
:101430004CF0010CC5F860C02D6E23F0030C05F0D4
:10144000010500953D4D65440295AD684FEA837CEA
:101450004FEA1C7807FA08FC25EA0C05B0F1904F1A
:1014600006D0DFF8DCC0604505D14FF0010C20E06C
:101470004FF0000C1DE0DFF8CCC0604502D14FF00A
:10148000020C16E0DFF8C0C0604502D14FF0030C3B
:101490000FE0DFF8B8C0604502D14FF0040C08E05F
:1014A000DFF8ACC0604502D14FF0050C01E04FF011
:1014B000060C0CFA08FC4CEA050C029DC5F808C0A5
:1014C000D9F80050CC46D1F8048095435FEAC8288B
:1014D00000D51543CCF80050DAF80050D446D1F8C6
:1014E000048095435FEA882800D51543CCF8005066
:1014F000DBF80050DC46D1F8048095435FEA883879
:1015000000D51543CCF80050DEF80050F446D1F871
:10151000048095435FEAC83800D51543CCF80050E5
:101520005B1C0A6832FA03F57FF400AF05B0BDE832
:10153000F08F00000804014000100240000001404C
:101540000004004800080048000C00480010004853
:10155000001400480AB18161704781627047000041
:101560000148806870470000840000207047704781
:10157000704770477047704770477047704710B5A5
:1015800090F8DC20012A21D0012280F8DC200223FF
:1015900080F8DD304B1C1BD00368D3F8CC4344F0FB
:1015A0000204C3F8CC430368D3F8CC4324F00C0402
:1015B0000C43C3F8CC430168D1F8CC3343F00103AA
:1015C000C1F8CC3380F8DD20002010BD022010BD12
:1015D0000168D1F8CC3323F00203C1F8CC33EAE739
:1015E0007047704770477047704770477047FF29D2
:1015F00003D0062903D002F0E1B801F05BBF01F08F
:10160000F6BF000038B5040056D0022084F8DD0093
:101610000025C4F8E050C4F8E450C4F8E850C4F819
:10162000EC50C4F8F050C4F8F450C4F8F850207AE4
:10163000C0071BD021492068884208D12048016E8C
:1016400041F080610166006E00F0806000902168CA
:10165000086820F44042208A00F44040104320F4FF
:101660004052A08A00F4405010430860204600F029
:1016700029F8207A800708D52168086820F440728C
:10168000A08900F4407010430860012084F8DD0058
:1016900084F8DC505FF00001C1EBC10004EB800076
:1016A000491C8561C561056245628562C9B20563F1
:1016B0000629F1D9002038BD012038BD006801405D
:1016C0000010024008B500680B49884212D10B484F
:1016D000016E41F080610166006E002200F08060C2
:1016E00000901146432000F045FCBDE8084043202F
:1016F00000F032BC08BD000000680140001002404C
:1017000010B586B0044614216846FEF74CFE0F491A
:101710002068884218D10E48C16C41F00101C164B3
:10172000C06C694600F0010005904FF470600090B5
:101730000220019000200290032003900D200490CD
:101740004FF09040FFF7E2FD06B010BD0068014089
:1017500000100240704770477047704770B50D46E3
:101760000446FFF7FDFE064607E0681C05D0FFF7BC
:10177000F7FE801BA8420DD865B12068D0F8880319
:10178000C043C003F1D4012084F8DD00002084F8B8
:10179000DC0070BD072084F8DD00032070BD7047B9
:1017A00070477047704770B590F8DD30022B23D03A
:1017B000022380F8DD30062920D08023046803EB63
:1017C000C115635923F007069368334323F01806C5
:1017D000D368334363519425046805EBC11513683E
:1017E00063519824036804EBC11152685A500121D7
:1017F00080F8DD10002070BD022070BD03681968FC
:1018000021F007049168214321F01804D168214395
:101810001960036811685961516802689161E6E7CF
:101820002DE9F04F90F8DD40022C25D090F8DC40F7
:10183000012C21D04FF0010980F8DC90022480F8BF
:10184000DD4000274FF0070C062918D09C2404EB3C
:10185000C116012A39D08024A8254FF4005A4FF42C
:10186000405B05EBC11504EBC114022A2FD0042AFA
:1018700045D0082A0BD144E00220BDE8F08F012AB0
:101880000AD0022A0CD0042A0ED0082A10D080F8E0
:10189000DDC080F8DC700EE002681968D1610AE0F2
:1018A00002681968516206E002681968916202E0F4
:1018B00002681968D16290F8DD10072948D080F8D5
:1018C000DD9080F8DC700020D7E7196835E04FF034
:1018D000A408D0F800C008EBC1111A684CF8012028
:1018E0005968002901680A5922F440522ED00A5141
:1018F00001680A59D3F804C042EA0C0218E01968DA
:1019000021E04FF0AC08D0F800C008EBC1111A6814
:101910004CF801205968002901680A5922F4404214
:1019200014D00A5101680A59D3F804C042EA8C0263
:101930000A515968514503D1996802689151BAE733
:101940005945B8D1996802685151B4E70A51B2E7D4
:10195000012092E710B590F8DC20012A0ED0012278
:1019600000F8DC2F0223437050F8DC3C1C680C4369
:101970001C60427000210170084610BD022010BD9D
:1019800070B5044690F8DD00022811D094F8DC0010
:1019900001280ED0012584F8DC50022084F8DD00F7
:1019A000204601F09CFE84F8DD50002084F8DC0025
:1019B00070BD022070BD10B590F8DC20012A10D057
:1019C000012200F8DC2F0223437050F8DC3CD3F8EE
:1019D00094430C43C3F894434270002101700846BD
:1019E00010BD022010BD2DE9F041044690F8DD0045
:1019F00015460E46022826D094F8DC00012821D096
:101A0000012784F8DC70022084F8DD00062E1CD04B
:101A1000204601F087FFC6EBC60004EB8000296872
:101A2000016269684162A9688162E968C1622969E5
:101A300001633146204601F009FD062E15D0E86A03
:101A400040B112E00220BDE8F0811146204601F0CD
:101A500085FDE0E78021206801EBC6114258EB6D5F
:101A600022F4007242EA4322425084F8DD700020E2
:101A700084F8DC00E7E72DE9F041044690F8DD004A
:101A8000022824D094F8DC0001281FD0012584F816
:101A9000DC50022084F8DD00EC20266800EBC11346
:101AA000F058176820F0100040EA071020F4801763
:101AB0005068384320F48037D068384320F400372A
:101AC000906838439769012F03D00CE00220BDE8ED
:101AD000F08120F004071069384320F002075069B4
:101AE000384340F00100F050204601F0AFFC84F88C
:101AF000DD50002084F8DC00E9E790F84120202A3E
:101B000024D190F84020012A20D0012280F84020E2
:101B1000242280F841200268136823F00103136037
:101B20000268136823F480531360026813680B4340
:101B3000136001680A6842F001020A60202180F8FF
:101B40004110002180F8401008467047022070477D
:101B500090F84120202A22D190F84020012A1ED05E
:101B6000012280F84020242280F841200268136876
:101B700023F0010313600268136823F4706343EADF
:101B80000121116001680A6842F001020A60202107
:101B900080F84110002180F840100846704702206C
:101BA0007047000070B5040004D094F8410000258F
:101BB00010B106E0012070BD84F84050204600F0CE
:101BC000FBF8242084F841002068016821F001011D
:101BD00001606068216820F0706008612068816899
:101BE00021F400418160E0680128A06830D040F411
:101BF000044021688860E0680228206841682AD093
:101C000021F40061416020684168144A1143416039
:101C10002068C16821F40041C160D4E9040108438F
:101C2000A16940EA01202168C860D4E9070108439E
:101C3000216808602068016841F001010160656465
:101C4000202084F84100256384F84250002070BDB4
:101C500040F40040CDE741F40061D3E7008000028A
:101C60002DE9FF4F83B00446DDE9108790F841006D
:101C7000DDF848909A469346202871D15FEA080023
:101C800014D09FB194F84000012869D0012084F855
:101C90004000FFF765FC0646012200901923D1039E
:101CA000204601F0EFFF00286ED103E04FF40070F2
:101CB000606469E0212084F84100402084F84200FB
:101CC00000256564C4F8248067856563CDE90096C6
:101CD00053465A462046049901F08AFF10B184F811
:101CE000405051E0608DFF274FF080784FF0007A30
:101CF000FF2804D927853A464346009505E0608DC4
:101D00002085009594F8282053462046049901F038
:101D1000A1FF32464946204602F01CF8A0BB606A8B
:101D2000216800788862606A401C6062608D401E95
:101D30006085208D401E80B22085618DD9B1D0B9DB
:101D40004B46002280212046009601F09BFFD8B927
:101D5000608DFF2805D927853A464346009506E061
:101D600026E0608D2085009594F828205346204673
:101D7000049901F06FFF608D0028CAD132464946B0
:101D8000204601F0BCFF18B1012007B0BDE8F08F7C
:101D900020682021C16120684268064B1A404260D9
:101DA00084F8411084F8425084F840500020ECE759
:101DB0000220EAE700E800FE70B59CB00646142158
:101DC00015A8FEF7F0FA54216846FEF7ECFA22490E
:101DD000306888423ED180150025009009956846FC
:101DE00000F060F908B1FEF790FB1C4CE06C40F08D
:101DF0000400E064E06C15A900F004001A904FF4B0
:101E000040701590122016900120CDE9170508208A
:101E100019901348FFF77AFAA06D40F08040A06552
:101E2000A06D114C00F080401A900E4820601520E3
:101E300060601020C4E902058020C4E90405A561A2
:101E4000E56120462562FFF7EFF908B1FEF75DFB7B
:101E5000B463A6621CB070BD007800400010024060
:101E6000000800481C000240B002002002488168BF
:101E700042681144816070478400002010B500243E
:101E8000032000F097F80F2000F008F808B10124B3
:101E900001E000F049F8204610BD000030B50546CD
:101EA0001C4887B0016E41F480110166006E06A9DE
:101EB00000F48010009001A800F062FB00F092FB9B
:101EC00015494000B0FBF1F11548144A491E026063
:101ED000416040F2E7320021C0E90321816000F057
:101EE00030FE040012D10E4800F078FE04000DD13F
:101EF0004E2000F031F8102D07D2002229464E2046
:101F000000F038F80748056000E0012407B02046DB
:101F100030BD00000010024040420F000050014060
:101F200050040020840000200A4882B0016E41F075
:101F300001010166016E01F001010091816D41F026
:101F400080518165806D00F08050009002B000F0FB
:101F5000A1B8000000100240002809DB00F01F02B9
:101F6000012191404009800000F1E020C0F80011FB
:101F700070470000F0B40E4B1B680C46C3F30223FD
:101F8000C3F10705042D00D90425191D072901D225
:101F9000002300E0DB1E012606FA05F1491E214060
:101FA00099409E40761E16403143F0BC02F0FEBFC1
:101FB0000CED00E0064900F0070208684FF6FF0349
:101FC000184040EA0220034A1043086070470000AE
:101FD0000CED00E00000FA052B492C4B0A68322179
:101FE0004A432B4940B1B0F5007F086829D020F45E
:101FF000C06040F480602CE00868C0F341200228F3
:1020000004D051F8800F20F4807022E0D1F88000D5
:1020100020F48070C1F88000086820F4C06040F4AB
:1020200000700860B2FBF3F0401C00E0401E4A69FB
:10203000520501D50028F9D1486940050AD5032089
:102040007047C0F34120022806D051F8800F40F4B9
:102050008070086000207047D1F8800040F48070E4
:10206000C1F88000086820F4C06040F40070086087
:10207000B2FBF3F0401C00E0401E4A695205DBD57C
:102080000028F9D1D8E700009000002040420F005E
:10209000007000400248816841F4804181607047CF
:1020A000007000402DE9F843044600680026BB4D4F
:1020B00000035ED5A86D0027C00008D4A86D40F0CD
:1020C0008050A865A86D012700F080500090DFF8CF
:1020D000D092D9F8001041F48071C9F80010FFF7D0
:1020E0003FFA804606E000BFFFF73AFAA0EB08008F
:1020F00002282BD8D9F80000C005F5D5D5F89000F6
:1021000010F4407014D0216D814211D0D5F89000A8
:10211000D5F8901020F4407041F48031C5F890104B
:10212000D5F8901021F48031C5F89010C5F89000D2
:10213000C00711D0FFF714FA804641F2883907E052
:10214000FFF70EFAA0EB0801494501D903260BE081
:10215000D5F890008007F3D5D5F89000216D20F4D4
:1021600040700843C5F890001FB1A86D20F0805062
:10217000A8652078C00707D0D5F88800616820F0EE
:1021800003000843C5F888002078800707D5D5F8F4
:102190008800A16820F00C000843C5F8880020786A
:1021A000400707D5D5F88800E16820F030000843E3
:1021B000C5F888002078000707D5D5F88800216980
:1021C00020F0C0000843C5F888002078C00607D575
:1021D000D5F88800616920F440700843C5F888008C
:1021E0002078800607D5D5F88800A16920F44060E2
:1021F0000843C5F888002078400607D5D5F8880040
:10220000E16920F440500843C5F8880020780006B2
:1022100007D5D5F88800216A20F440400843C5F866
:1022200088002088C00507D5D5F88800616A20F4A9
:1022300040300843C5F888002068800307D5D5F8EA
:102240009C00A16A20F003000843C5F89C00208888
:10225000800507D5D5F88800E16A20F440200843BE
:10226000C5F88800208840050FD5D5F88800216B77
:1022700020F440100843C5F88800206BB0F5801F9B
:1022800003D1E86840F48010E860208800050FD58D
:10229000D5F88800616B20F440000843C5F8880039
:1022A000606BB0F5800F03D1E86840F48010E860FF
:1022B0002088C0040FD5D5F88800A16B20F04070AD
:1022C0000843C5F88800A06BB0F1807F03D1E868AF
:1022D00040F48010E86020884FF0006180040ED543
:1022E000D5F88800E26B20F040601043C5F8880004
:1022F000E06B884203D1E86840F48010E8602088F1
:1023000040040ED5D5F88800226C20F040601043C0
:10231000C5F88800206C884203D1E86840F480103A
:10232000E860208800040FD5D5F88800616C20F0A3
:1023300040500843C5F88800606CB0F1805F03D15D
:10234000E86840F48030E8602068C0030FD5D5F815
:102350008800A16C20F040400843C5F88800A06CBC
:10236000B0F1804F03D1E86840F48030E860206825
:1023700040030FD5D5F89C00E16C20F440100843D1
:10238000C5F89C00E06CB0F5001F03D1E86840F48C
:102390008010E8603046BDE8F8830000001002407D
:1023A000007000402DE9F0470E4605004FF0000791
:1023B00025D0DFF8AC81D8F8000000F00F00B04263
:1023C0000CD2D8F8001021F00F013143C8F80010EA
:1023D000D8F8000000F00F00B04210D12968614C1D
:1023E000C80741F2883A5AD06868DFF87C91032820
:1023F00008D0022820682DD0400500282CDB0120C1
:10240000BDE8F08720688001F9D5E06800F003029C
:10241000E068C0F30310401C032A19D0534A00BFE0
:10242000B2FBF0F0E268C2F306225043E268C2F366
:102430004162521C5200B0FBF2F0484517D9A06827
:1024400010F0F00F0CD0880711D5A86840B10EE04D
:10245000474AE5E78003D0E700F0D6F8484506D9BB
:10246000A06820F0F00040F08000A0608027A06805
:10247000696820F003000843A060FFF771F8814607
:1024800006E000BFFFF76CF8A0EB090151453AD810
:10249000A068696800F00C00B0EB810FF2D12868E9
:1024A000810714D5400703D5A06840F4E060A06020
:1024B0002878000705D5A06820F4605040F4E0605B
:1024C000A060A068A96820F0F000084304E0802F15
:1024D00003D1A06820F0F000A060D8F800104046BA
:1024E00001F00F01B14216D9016821F00F0131430B
:1024F0000160FFF735F8074607E000BFFFF730F847
:10250000C11B514501D903207AE7D8F8000000F03B
:102510000F00B042F2D12878400705D5A068E968DD
:1025200020F4E0600843A0602878000706D5A06882
:10253000296920F4605040EAC100A06000F064F80E
:10254000A1680C4AC1F30311515C01F01F01C8409E
:102550000949086009480068BDE8F047FFF79EBCDC
:10256000002002400010024000B4C4040024F40023
:10257000001BB7008A58000890000020840000204B
:102580000F2202600C4A936803F0030343609368D0
:1025900003F0F0038360936803F4E063C360926820
:1025A0004FF4E06303EAD20202610448006800F0DD
:1025B0000F00086070470000001002400020024039
:1025C0000548064900688968054AC1F30221515C43
:1025D00001F01F01C8407047900000200010024029
:1025E0009A5800080548064900688968054AC1F3F9
:1025F000C221515C01F01F01C840704790000020CB
:10260000001002409A580008184910B58868C0F3B5
:1026100081021748012A0BD08A68164BC2F3810247
:10262000022A06D08A68C2F38102032A03D000205E
:1026300010BD184610BDCA6802F00304CA68C2F390
:102640000312521C032C02D0B0FBF2F001E0B3FBEA
:10265000F2F0CA68C968C2F306225043C1F341616F
:10266000491C4900B0FBF1F010BD00000010024011
:102670000024F400001BB7002DE9F84304007AD0D1
:102680002078F84DC00747D0A868E96800F00C0032
:1026900001F003010C2802D0082817D001E003291B
:1026A00014D06068B0F5803F17D0B0F5A02F28682F
:1026B00017D020F480302860286820F4802028601B
:1026C0006068E0B1FEF74CFF064614E0286880031E
:1026D00022D560680028D2D01EE0286840F48030FF
:1026E000EDE740F480202860F7E700BFFEF738FFF1
:1026F000801B642870D828688003F7D50CE0FEF7AB
:102700002FFF064605E000BFFEF72AFF801B642866
:10271000F0D828688003F7D4207880074CD5A868C3
:10272000E96800F00C0001F003010C2802D0042835
:102730000DD001E002290AD0E068002828682BD0DB
:1027400040F480702860FEF70BFF064619E0286809
:10275000400502D5E068002891D06868217C20F00F
:10276000FE4040EA01606860BF480068FFF796FBE2
:10277000002800D120E072E1FEF7F2FE801B022863
:10278000B8D828684005F7D56868217C20F0FE405D
:1027900040EA016068600FE020F480702860FEF776
:1027A000DFFE064605E000BFFEF7DAFE801B0228CA
:1027B000A0D828684005F7D42078000729D560699B
:1027C0000028D5F8940013D040F00100C5F894001B
:1027D000FEF7C6FE064606E090E000BFFEF7C0FE2C
:1027E000801B022886D8D5F894008007F6D510E023
:1027F00020F00100C5F89400FEF7B2FE064604E0A2
:10280000FEF7AEFE801B022878D8D5F8940080072A
:10281000F6D42078400761D5A86D0026C00008D402
:10282000A86D40F08050A865A86D012600F080508A
:1028300000908E480168C90511D40168804641F4B2
:1028400080710160FEF78CFE074604E0FEF788FE0B
:10285000C01B022852D8D8F80000C005F6D5A068E1
:10286000012815D00528D5F8900016D020F00100D9
:10287000C5F89000D5F8900020F00400C5F890004D
:10288000A06841F28838B8B1FEF76AFE07460EE04C
:10289000D5F8900040F00100F0E740F00400C5F8E2
:1028A0009000F5E7FEF75CFEC11B414526D8D5F840
:1028B00090008007F6D50CE0FEF752FE074604E0D4
:1028C000FEF74EFEC11B414518D8D5F89000800791
:1028D000F6D41EB1A86D20F08050A865207880063F
:1028E00029D5A0690028D5F8980013D040F0010040
:1028F000C5F89800FEF734FE064606E075E000BF16
:10290000FEF72EFE801B02286FD8D5F898008007AE
:10291000F6D510E020F00100C5F89800FEF720FE83
:10292000064604E0FEF71CFE801B02285DD8D5F8A1
:1029300098008007F6D4E069F0B3A968C1F381017B
:1029400003295DD00228286820F08070286003D019
:10295000FEF706FE04464BE0FEF702FE064604E0E4
:10296000FEF7FEFD801B02283FD828688001F7D4BF
:10297000F4E908016FF00F0202EB01110843218A0C
:102980005204490802EB4151A26841EA022108437E
:10299000217D4FF07E42490802EB41610843217BD3
:1029A00040EAC160E968324A11400843E86028689B
:1029B00040F08070286000E05EE0E86840F08070E1
:1029C000E860FEF7CDFD044605E000BFFEF7C8FD58
:1029D000001B022809D828688001F7D54CE000BF09
:1029E000FEF7BEFD001B022802D90320BDE8F883D4
:1029F00028688001F4D4E8681E490840E8603BE09C
:102A00000128F3D0E868226A00F00301914226D140
:102A1000616A00F0F0020901103991421FD1A26AE7
:102A200000F4FE41B1EB022F19D194F82C2000F0F4
:102A30007841B1EBC26F12D1218E00F4C002490877
:102A40004905A1F50011914209D194F8341000F024
:102A5000C06049084906A1F1007181420CD00120F3
:102A6000C4E7000000100240840000200070004015
:102A70000C809F01FCFFEEFE0020B7E77047704717
:102A80007047704770477047F0B590F83C20012AB6
:102A900043D0012580F83C50022280F83D20036895
:102AA0005A689C681E4E1F4FDFF87CC0B34203D0AB
:102AB000BB4201D0634504D122F4700E4A6842EA59
:102AC0000E02DFF868E002EA0E02D1F800E04EEAFA
:102AD000020EC3F804E00268B24212D0B2F1804F95
:102AE0000FD0134B9A420CD0124B9A4209D0124B82
:102AF0009A4206D0BA4204D0104B9A4201D06245A5
:102B000004D1896824F080031943916080F83D5016
:102B1000002180F83C100846F0BD0220F0BD000006
:102B2000002C014000340140005001408FFFFFFDA8
:102B30000004004000080040000C0040004001403C
:102B4000704710B5040003D094F83D0010B107E0C1
:102B5000012010BD002084F83C00204600F022F83F
:102B6000022084F83D00211D206801F0A5FE01200F
:102B700084F8480084F83E0084F83F0084F8400060
:102B800084F8410084F8420084F8430084F844004B
:102B900084F8450084F8460084F8470084F83D0036
:102BA000002010BD08B50068B0F1804F12D10A486E
:102BB000816D41F001018165806D002200F001000E
:102BC000009011461C20FFF7D5F9BDE808401C20F5
:102BD000FFF7C2B908BD00000010024090F83D1098
:102BE000012901D001207047022180F83D100168C1
:102BF000CA6842F00102CA6000681349884214D0D2
:102C0000B0F1804F11D0114988420ED0104988424E
:102C10000BD01049884208D00F49884205D00F498F
:102C2000884202D00E49884207D181680D4A11407E
:102C3000062906D0B1F5803F03D0016841F00101BB
:102C40000160002070470000002C0140000400409B
:102C500000080040000C00400034014000400140EA
:102C6000005001400700010070B5044690F83C0098
:102C7000002501281CD0012684F83C60022084F83D
:102C80003D0022689068334B184020F47F409060EC
:102C90000868B0F5005F2ED016DC402849D009DC6A
:102CA000D0B1102818D0202816D0302849D113E0F0
:102CB000022070BD50282AD0602830D070280FD054
:102CC000B0F5805F3DD13DE010F00F0F39D101111B
:102CD000A1F58031072934D822680146104625E045
:102CE000CB68D1E90121206801F058FE2068816895
:102CF00041F0770109E0CB68D1E90121206801F0BA
:102D00004DFE2068816841F4804181601AE0CA6804
:102D10004968206801F056FE5021206806E0CA6824
:102D20004968206801F05FFE6021206801F040FEE4
:102D300008E0CA684968206801F044FE4021206824
:102D4000F4E7012584F83D60002084F83C00284623
:102D500070BD000088FFCEFF70472DE9F0410446AA
:102D60000068C66805694FF00007A90713D5B107C9
:102D700011D5F91E01610120207720688069800744
:102D8000204602D0FFF7E8FF04E000F0B7F8204645
:102D900000F0B5F82777680716D5700714D52168B5
:102DA0006FF004000861022020772068806910F429
:102DB000407F204602D0FFF7CFFF04E000F09EF8EE
:102DC000204600F09CF82777280715D5300713D543
:102DD00021686FF008000861042020772068C0692E
:102DE0008007204602D0FFF7B7FF04E000F086F826
:102DF000204600F084F82777E80616D5F00614D5AB
:102E000021686FF010000861082020772068C069F1
:102E100010F4407F204602D0FFF79EFF04E000F050
:102E20006DF8204600F06BF82777E80708D0F00728
:102E300006D021686FF001000861204600F060F8BC
:102E4000280601D4A80408D5300606D521686FF4F9
:102E5000025008612046FFF712FEE80508D530064B
:102E600006D521686FF4807008612046FFF706FEE2
:102E7000680608D5700606D521686FF04000086125
:102E8000204600F047F8A80608D5B00606D5216808
:102E90006FF0200008612046FFF7F2FDE80208D538
:102EA000F00206D521686FF4801008612046FFF714
:102EB000E9FDA80208D5B00206D521686FF400101C
:102EC00008612046FFF7DDFD680208D5700206D5CF
:102ED00021686FF4800008612046FFF7D4FD2802C6
:102EE0000AD5300208D521686FF400000861204639
:102EF000BDE8F041FFF724BEBDE8F08170477047A0
:102F000000680349884201D1FEF7B0BF7047000056
:102F100000500140704790F88410012918D0012119
:102F200080F884102421C0F8881001680A680B68B2
:102F300023F001030B6022F0005100224266036877
:102F400019602021C0F8881080F88420104670474E
:102F5000022070477047704770B5044690F88400AF
:102F600001281DD0012084F884002420C4F88800A2
:102F700020680568026822F0010202602068826809
:102F800022F060620A438260204601F03FFD206823
:102F900005602020C4F88800002084F8840070BDFB
:102FA000022070BD70B5044690F8840001281DD041
:102FB000012084F884002420C4F888002068056873
:102FC000026822F0010202602068826822F06042FA
:102FD0000A438260204601F019FD20680560202028
:102FE000C4F88800002084F8840070BD022070BD01
:102FF00070477047704700002DE9F04103680446B0
:10300000D86919689A6840F60F0528424FF0000504
:103010004FF002060AD187067ED501F0200702F0A4
:10302000805C57EA0C0777D0616F42E1B64FDFF85A
:10303000DCC2174001EA0C0C57EA0C0C6CD05FEABA
:10304000C07C0CD05FEAC15C09D54FF0010CC3F81D
:1030500020C0D4F8903043F00103C4F890308307C7
:1030600009D5D30707D023681E62D4F8903043F007
:103070000403C4F8903043070AD5D30708D0266864
:1030800004233362D4F8903043F00203C4F8903044
:1030900003070CD501F020033B4308D02668082322
:1030A0003362D4F8903043F00803C4F8903003053D
:1030B0000BD54B0109D526684FF400633362D4F871
:1030C000903043F02003C4F89030D4F89030002BB7
:1030D0003DD0800609D501F0200002F08051084360
:1030E00003D0616F09B120468847D4F89000216869
:1030F0008968490602D410F0280F2AD0204601F032
:1031000069FD2068806840061ED52068083050E8B8
:10311000001F21F0400100E021E040E80012002AF9
:10312000F3D1D4F8800078B179498163D4F8800074
:10313000FDF7E1FF00280AD0D4F88000816B00E0A1
:103140002046BDE8F04108472046FFF753FFBDE8A1
:10315000F0812046FFF74EFFC4F89050F7E7D4F80F
:103160006CC02027BCF1010F7ED15FEAC06C7BD51B
:103170005FEAC16C78D5102018622068806840062C
:1031800051D5D4F880100A6850680004000C3ED075
:10319000B4F85C3083423AD9A4F85E00086800684D
:1031A00080062CD4216851E8000F20F4807041E89B
:1031B0000002002AF6D12068083050E8001F21F0F4
:1031C000010140E80012002AF5D12068083050E8DB
:1031D000001F21F0400140E80012002AF5D1C4F898
:1031E0008C70E566216851E8000F20F0100041E87E
:1031F0000002002AF6D1D4F88000FDF747FF2667C9
:10320000B4F85C00B4F85E10401A81B207E0B4F87C
:103210005C1081429BD11068800698D526672046B5
:10322000FFF798FE93E7B4F85C00B4F85E10401A1C
:1032300081B2B4F85E00002889D0002987D02268C6
:1032400052E8000F20F4907042E80003002BF6D102
:103250002D4BDB432068083050E8002F1A4040E82F
:10326000002CBCF1000F00E00EE0F3D1C4F88C702C
:10327000E5666567206850E8002F22F0100240E8FC
:103280000023002BF6D1C9E7C60209D5560207D59F
:103290004FF4801018622046BDE8F041FFF7A9BE48
:1032A00003060AD501F0800302F40002134304D0A0
:1032B000A16F00297FF444AF49E7420611D54A06C1
:1032C0000FD52046016851E8002F22F0400241E866
:1032D0000023002BF6D1C0F88870856700F0AEF8A7
:1032E00035E7020206D54A0004D52046BDE8F04184
:1032F000FFF77EBEC00195D5002993DA2046BDE8D0
:10330000F041FFF728BE000001000010200100047A
:10331000C54B000810B5040003D0D4F8880010B1E4
:1033200007E0012010BD002084F88400204600F052
:1033300027F82420C4F888002068016821F00101E2
:103340000160A06A10B1204601F082FB204601F026
:103350006BFC0128E6D02068416821F4904141606F
:103360002068816821F02A0181602068016841F0AD
:10337000010101602046BDE8104001F0CDBB000016
:1033800070B59CB00646142115A8FDF70CF8542121
:103390006846FDF708F825493068884243D1022481
:1033A0000025684602950094FEF77CFE08B1FDF703
:1033B000ACF81F49886D40F400308865886D00F4D2
:1033C00000301A90C86C40F00100C864C86C15A9A0
:1033D00000F001001A900C2081E831000720CDE9AF
:1033E00018504FF09040FDF791FF134C11482060AA
:1033F0001B2060601020C4E902058020C4E9040598
:10340000A561E56120462562FDF70EFF08B1FDF7D5
:103410007CF8F467002211462620A662FEF7AAFD7A
:103420002620FEF799FD1CB070BD0000004400404E
:103430000010024030000240F003002070470000FE
:1034400006210148FEF7D3B860010020072930D2D9
:10345000DFE801F00A10161C222804000068D0F8EA
:10346000841341F0010122E00068D0F8841341F098
:1034700002011CE00068D0F8841341F0040116E05A
:103480000068D0F8841341F0080110E00068D0F81B
:10349000841341F010010AE00068D0F8841341F071
:1034A000200104E00068D0F8841341F04001C0F826
:1034B0008413704770B506460068D0F88853D0F87A
:1034C0009043E90707D0E10705D00121C0F88C132C
:1034D0003046FEF786F8A80708D5A00706D531685C
:1034E0000220C1F88C033046FEF77CF8680708D547
:1034F000600706D531680420C1F88C033046FEF71A
:1035000072F8280708D5200706D531680820C1F8C9
:103510008C033046FEF768F8E80608D5E00606D5C5
:1035200031681020C1F88C033046FEF75EF868065B
:1035300008D5600606D531684020C1F88C033046B6
:10354000FEF754F8A80608D5A00606D53168202055
:10355000C1F88C033046FEF725F970BD70B50368DD
:103560001A68D3F8A0534C6922F02002264614436F
:1035700024F0C002202E2BD08C69022C28D0032CE2
:103580002BD0042C2ED022F0E00200BF22F40064E5
:10359000CA69224322F480640A6A224322F0C0648A
:1035A0004A6A224322F000648A6A2243CC6A22F0EB
:1035B000404242EA840222F000544A6B096B2243E3
:1035C00025F4803421431A600068C0F8A01370BD50
:1035D00022F0C00242F02002D8E722F0800242F03E
:1035E0004002D3E722F0400242F08002CEE72DE90C
:1035F000F04704460068D0F88883D0F89073466896
:10360000C5685FEAC8314FF001090DD5F9030BD544
:103610004FF48031C0F88C1384F8DD90002084F8DA
:10362000DC002046FDF7AAFF5FEA883009D5B80321
:1036300007D521684FF40030C1F88C032046FDF710
:1036400095FFF00708D0E80706D02168C1F8089078
:1036500006212046FDF78DFFB00708D5A80706D53F
:1036600021680220886006212046FDF783FF70074D
:1036700008D5680706D52168042088600621204601
:10368000FDF779FF300708D5280706D521680820FF
:10369000886006212046FDF76FFFF00608D5E80692
:1036A00006D521681020886006212046FEF778F8AC
:1036B000B00607D5A80605D52168202088602046D9
:1036C000FEF76FF8700608D5680606D52168402019
:1036D000886006212046FEF762F8BDE8F087F0B565
:1036E0000024E426056806EBC11755F807C0B82684
:1036F00006EBC116AE59402A20D00EDC082A2CD089
:1037000006DC012A1AD0022A27D0042A31D115E07A
:10371000102A13D0202A2CD11FE0B2F5007F1CD034
:1037200005DC802A19D0B2F5807F22D106E0B2F5FF
:10373000806F03D0B2F5006F1BD10EE04FF0BC0ECE
:103740000EEBC11E5A6845F80E204FF0C00E0568FA
:103750000EEBC1119A686A500BE0C42404EBC1144B
:103760005A682A51C825046805EBC1119A6862504D
:103770001024FE21A1401A682CEA010CA240D9684D
:1037800042EA0C02A14011431A69D3F814C015464D
:10379000A2400A430CFA04FC99694CEA020CA140CD
:1037A00041EA0C01082D06D1B20504D4B20102D4BD
:1037B000DA69A24011430068C151F0BD2DE9F04122
:1037C000074688460068842202EBC81146588C22BE
:1037D00002EBC81145584FF08802F30702EBC814FA
:1037E00007D0E90705D00121015141463846FDF7D0
:1037F000C0FEB00708D5A80706D5396802200851D1
:1038000041463846FDF7B6FE700708D5680706D56D
:1038100039680420085141463846FDF7ACFE3007B0
:1038200008D5280706D5396808200851414638468A
:10383000FDF7A2FEF00608D5E80606D53968102087
:10384000085141463846FDF7ABFF700608D56806BB
:1038500006D539684020085141463846FDF79FFF9C
:10386000300608D5280606D539688020085141461B
:103870003846FDF77CFEF00509D5E80507D539681F
:103880004FF48070085141463846FDF771FEB0058F
:1038900009D5A80507D539684FF40070085141468D
:1038A0003846FDF758FF700509D5680507D5396812
:1038B0004FF48060085141463846FDF74BFF300514
:1038C00009D5280507D539684FF4006008514146ED
:1038D0003846FDF742FFF00409D5E80407D53968FA
:1038E0004FF48050085141463846FDF735FFB0048B
:1038F00009D5A80407D539684FF40050085141464E
:103900003846FDF73AFE700409D5680407D53968D2
:103910004FF48040085141463846FDF761FEBDE84E
:10392000F08100002DE9F04F8024036804EBC117FB
:10393000DC5924F07044DC510568EC59E82303EBB2
:10394000C1139E4655F803C0E42303EBC1139B4605
:1039500055F803A0D5F8A033566924F02004344369
:10396000202E24D09669022E21D0032E24D0042E9E
:1039700027D024F4D07400BF24F40066D469344303
:1039800024F48066146A344324F0C066546A3443D5
:1039900024F00066946A344324F07046D46A3443B9
:1039A000566B24F40034B6F1005F0FD010E024F41D
:1039B000C07444F02004DFE724F4807444F08004F1
:1039C000DAE724F0800444F48074D5E744F400344A
:1039D00024F04008946B2CF03F0C264644EA08047F
:1039E00024F48028946D44EA0804DFF8D08004EAC7
:1039F0000804D2F8508048EA040992F83C40D2F812
:103A0000408004F03F0444EA0C0424F0004448EAF7
:103A10000408546C2AF4807C44EA0C04D2F848C0B0
:103A2000BCF5606F02D0BCF5F05F01D1402E03D130
:103A300024F4F0544CEA040424F48046D46C344357
:103A4000566D062927D2DFE801F003090F151B2167
:103A5000126B23F4003343EA42031CE0126B23F49D
:103A6000802343EA820316E0126B23F4002343EA27
:103A7000C20310E0126B23F4801343EA02130AE03E
:103A8000126B23F4001343EA421304E0126B23F495
:103A9000800343EA821345F80790056845F80E80D5
:103AA000056845F80B40D424026804EBC111565058
:103AB0000068C0F8A033BDE8F08F0000FFFF06FEED
:103AC000FEE701688A69D243920701D400228A6224
:103AD00000688169C943C90703D0816941F00101C8
:103AE000816170472DE9F047044600688946002649
:103AF000816935461746C9064FF0200841D5102187
:103B0000C1612FE0B9F1FF3F2CD0FDF729FDC11BAA
:103B1000494502D8B9F1000F24D12068416894F8D2
:103B2000422001F480418369DB431B0415D4B1F5C5
:103B3000804F12D0202A10D0416841F4804141606A
:103B4000FDF70EFD074608E0FDF70AFDC01B19282A
:103B500003D945F02005012604E020688069C043B0
:103B60008006F1D420688069C043800602D5002E0B
:103B7000C8D003E016B92168C1F81C8045F00405DF
:103B8000012621688869C20505D54FF4807245F089
:103B90000105CA610126410509D522684FF48061FB
:103BA00045F00805D1610126800502D40AE08005B0
:103BB00007D521684FF4007045F00205C861012661
:103BC00000E086B12046FFF77CFF54F8240B4168E3
:103BD000064A11404160206A2843206284F81D8013
:103BE0000020A07720773046BDE8F08700E800FE8F
:103BF0002DE9F8430446164615489846DDE908972E
:103C0000DAB2C3020090204600F024F83A46494652
:103C1000204600F09FF8B8B9F5B2B8F1010F08D00E
:103C20002168300A88623A464946204600F092F8F8
:103C300050B9206885624B460022802120460097BB
:103C400000F020F8002800D00120BDE8F883000033
:103C50000020008010B5C1F3090141EA0241026869
:103C6000029C19432143506821F000414FF48063C6
:103C700003EA5453024C234398430843506010BD59
:103C8000FF63FF032DE9F0411D4617460E4604462B
:103C9000DDF8188027E0424629462046FFF722FF3C
:103CA00010B10120BDE8F081681C1CD0FDF758FC64
:103CB000A0EB0800A84200D8ADB92068806936EAB8
:103CC00000000ED00020B8420DD154F8440F40F04F
:103CD000200044F80409202060700020A0702070AB
:103CE000DFE70120EFE72068806936EA000004D0B2
:103CF0000020B842CFD00020D4E70120F9E770B50A
:103D000016460D4604461EE0324629462046FFF779
:103D1000E9FE08B1012070BDFDF722FC801BA8421E
:103D200000D885B920688069C04380060BD554F857
:103D3000440F40F0200044F8040920206070002067
:103D4000A0702070E6E720688069C0438006DBD45D
:103D5000002070BD70B516460D46044620E0324680
:103D600029462046FFF7BEFE08B1012070BD681C41
:103D700016D0FDF7F5FB801BA84200D885B9206856
:103D80008069C04380070BD554F8440F40F02000F1
:103D900044F80409202060700020A0702070E4E73F
:103DA00020688069C0438007D9D4002070BD00EB33
:103DB0008100006E00F0F84070478068C0F3C000DA
:103DC00070478068C0F3800070478068C0F380004F
:103DD0007047C06810F4406F01D000207047012088
:103DE0007047042303EAD15310B518444369C1F363
:103DF000045107248C40A3438A401343436110BD00
:103E000000EB8100016E21F0004111430166704713
:103E100030B58BB0002408940994202168460A9498
:103E2000FCF7C1FA1C484FF0A041042501604FF493
:103E30004031C0E90114C4600461C0E9054504775C
:103E400001214177016280F82440C462046380F854
:103E50003810C46380F84040FCF7A2FF08B1FCF7BB
:103E600054FB08A90C480894FCF756FB08B1FCF772
:103E70004CFB0A4800900620CDE90104084805944F
:103E8000CDE9030569460448FCF7F6FB002801D09C
:103E9000FCF73BFB0BB030BD940000200200300467
:103EA00000007F40154808B5816C41F00401816431
:103EB000816C01F004010091816C41F00101816489
:103EC000806C002200F00100009011460B20FEF7EC
:103ED00051F80B20FEF740F8002211460C20FEF7A7
:103EE00049F80C20FEF738F8002211460D20FEF7A5
:103EF00041F8BDE808400D20FEF72EB80010024042
:103F000070B586B014216846FCF74DFA2248C16CA2
:103F100041F00401C164C16C01F004010591C16C60
:103F200041F02001C164C16C01F020010591C16C18
:103F300041F00101C164C16C01F001010591C16C46
:103F400041F00201C164C06C144E00F002004FF455
:103F500000540590002221463046FDF7FBFA01256A
:103F6000CDE9004500240294694630460394FDF7EC
:103F7000CDF9C0208DE8310069464FF09040FDF743
:103F8000C5F94FF40C708DE8310069460448FDF71F
:103F9000BDF906B070BD00000010024000080048E6
:103FA000000400482DE9F043AFB000242A942B947C
:103FB0002C941C2123A82D94FCF7F5F96021684668
:103FC000FCF7F1F920942194202118A82294FCF701
:103FD000EAF978487649C0E900148460FDF712FBDD
:103FE00008B1FCF792FA0C217248FDF7C8FA08B143
:103FF000FCF78BFA0A216F48FDF7B0FB08B1FCF71C
:1040000084FA4DF28040CDE92A0408252AAA00212D
:104010006848CDE92C45FDF7C6FB08B1FCF775FAF9
:10402000249423942594269423AA0021614829945A
:10403000FDF721FD08B1FCF768FA00940194012016
:104040000294CDE9034005940A94069407940894D9
:104050000F94C00409940B940C940D9414900E9436
:104060001094119402261294CDE915646A46002139
:1040700050481794FDF7B7FC08B1FCF746FA6A46BA
:1040800001214C48FDF7AFFC08B1FCF73EFA20AB2C
:104090000122002147482094FDF7C2FB08B1FCF73C
:1040A00034FA46F64029CDE9209420AB02220021C3
:1040B00040482294FDF7B4FB08B1FCF726FA20AB88
:1040C000042200213B482094FDF7AAFB08B1FCF72D
:1040D0001CFA4FF00408CDE91A841D941E94CDE912
:1040E00018651C9418AB0122002132481F94FDF77B
:1040F00047FC08B1FCF709FA1027CDE9184718ABBF
:10410000042201212B481A95FDF73AFC08B1FCF76F
:10411000FCF92025CDE9186518AB022200212548BD
:10412000CDF86880FDF72CFC08B1FCF7EEF9CDE97D
:10413000184718AB082201211E481A95FDF720FCEC
:1041400008B1FCF7E2F92AAA01211A48FDF72BFB76
:1041500008B1FCF7DAF923AA01211648FDF78BFC18
:1041600008B1FCF7D2F9012220AB11461148FDF746
:1041700057FB08B1FCF7C9F920AB022201210D4819
:10418000CDF88090FDF74CFB08B1FCF7BEF920ABF1
:104190000422012107482094FDF742FB08B1FCF7F7
:1041A000B4F90448FDF7ACFA2FB0BDE8F083000085
:1041B0000068014060010020134810B511490160FA
:1041C0001249416000210122C0E9021201614161EE
:1041D0008161C1610162FDF7E5FC08B1FCF795F969
:1041E00000210948FDF789FC08B1FCF78EF9002190
:1041F0000548FDF7ADFC002803D0BDE81040FCF7F2
:1042000084B910BD007800405C020020C285B24035
:1042100010B500F01DFA00F0F5F9022319A20021F3
:10422000192000F091FA022319A21946002000F08B
:104230008BFA022318A20421002000F085FA022341
:1042400017A20421442000F07FFA022315A20421C2
:104250005F2000F079FA022313A20621002000F06B
:1042600073FA02230EA20621442000F06DFA022305
:104270000FA206215F2000F067FABDE8104000F0B1
:1042800044BA0000416E64726577207465737400EF
:1042900053746174653A0000566F75743A000000FB
:1042A0002E00000056000000496F75743A000000AF
:1042B0004100000010B588B0002419480094019412
:1042C00002940394049405944FF080410694016095
:1042D00048F6B701C0E9011440F2F311C1604FF490
:1042E0000071016180218161FEF72BFC08B1FCF7B0
:1042F0000CF94FF48050009069460948FEF7B4FC71
:1043000008B1FCF702F9049404A905480694FEF7E5
:10431000BBFB002801D0FCF7F8F808B010BD000086
:1043200010030020184810B5164901604FF4E13120
:104330004160002181600C22C160C0E904128161EA
:10434000C161016241628162FEF7E4FF08B1FCF7DE
:10435000DCF800210C48FEF725FE08B1FCF7D5F883
:1043600000210948FEF7F8FD08B1FCF7CEF8064831
:10437000FEF7D1FD002803D0BDE81040FCF7C5B81A
:1043800010BD0000004400405C030020FEE7FEE793
:104390002DE9F041644841F690224FF47A73C168E8
:1043A000406851430A1340F69801A0F50060484365
:1043B000B2FBF3F10024CEB22546001366F30705E5
:1043C000B0466FF07C0116FB01F102EBC1076421DE
:1043D000B7FBF1F7FFB267F30F256FF07C0C16FB0C
:1043E0000CF602EBC6026FF0180617FB06F602EB9E
:1043F00086070A22B7FBF2F6B0FBF3F366F3174524
:10440000764206EB860607EB4606DBB266F31F65CF
:1044100063F3070413FB0CF600EBC606B6FBF1F1E1
:10442000C9B261F30F24664613FB06F300EBC30029
:104430006FF0180311FB03F100EB8101B1FBF2F007
:1044400060F31744404200EB8000374E01EB400020
:10445000364F403E60F31F64B879B18B884217D065
:10446000B08330B1012807D0022808D003280FD12B
:1044700008E002232EA207E0022330A204E0022378
:1044800031A201E0022333A20021192000F05CF9DF
:104490003888F18B884219D0F083052816D2DFE8DE
:1044A00000F00306090C0F0002232DA20AE00223EC
:1044B0002DA207E002232EA204E002232EA201E097
:1044C00002232FA20221372000F03EF942460421A8
:1044D000322000F059F8C5F3072204213C2000F0F7
:1044E00053F8C5F3074204214B2000F04DF82A0E83
:1044F0000421552000F048F8E2B20621322000F0F5
:1045000043F8C4F3072206213C2000F03DF8C4F331
:10451000074206214B2000F037F8220EBDE8F0419B
:104520000621552000F030B8400000209C040020F7
:104530004D4F44453A2A4E412A2000004D4F4445F4
:104540003A4255434B2000004D4F44453A424F4FAD
:10455000535400004D4F44453A4D49582000000047
:10456000496E69742020000057616974696E6700A4
:10457000526973696E67000052756E6E696E6700EE
:104580004572726F722020000A2A25D2DFE802F0FD
:1045900005080B0E1114171A1D2002230FA219E093
:1045A00002230FA216E002230EA213E002230EA2A2
:1045B00010E002230DA20DE002230DA20AE0022367
:1045C0000CA207E002230CA204E002230BA201E0EC
:1045D00002230BA200F0B8B87047000030000000C2
:1045E0003100000032000000330000003400000001
:1045F00035000000360000003700000038000000E1
:104600003900000010B5002000F006F8BDE81040A9
:104610006420FCF769BE000070B506465FF0000438
:1046200004F1B000C0B200F09DFC002000F09AFC44
:10463000102000F097FC0025304600F0A5FC6D1C12
:10464000EDB2802DF8D3641CE4B2082CE8D370BD21
:1046500010B5C820FCF748FEAE2000F083FC2020F7
:1046600000F080FC102000F07DFCB02000F07AFC0F
:10467000C82000F077FC002000F074FC102000F04F
:1046800071FC402000F06EFC812000F06BFCFF20EC
:1046900000F068FCA12000F065FCA62000F062FCA0
:1046A000A82000F05FFC3F2000F05CFCA42000F09C
:1046B00059FCD32000F056FC002000F053FCD5201C
:1046C00000F050FCF02000F04DFCD92000F04AFC36
:1046D000222000F047FCDA2000F044FC122000F019
:1046E00041FCDB2000F03EFC202000F03BFC8D2054
:1046F00000F038FC142000F035FCAF2000F032FC54
:10470000BDE810406420FCF7EFBD10B58D2000F02F
:1047100029FC142000F026FCBDE81040AF2000F07A
:1047200021BC10B50446B031C8B200F01BFC10200B
:1047300040EA141000F016FC04F00F00BDE8104031
:1047400040F0010000F00EBC2DE9F0470025914635
:104750008A460446012B22D0DFF8BC80022B24D1EC
:1047600055E02038C7B27E2C04D90AF1010000249C
:1047700000F0FF0A51462046FFF7D3FF07EB470042
:10478000002608EB4007B85D00F0FEFB761CF6B291
:10479000062EF8D3A41D6D1CE4B2EDB201E0DFF8E3
:1047A0007C8019F805000028DBD1BDE8F0872038AF
:1047B000C7B2782C04D90AF10100002400F0FF0AE6
:1047C00051462046FFF7ADFF5FF0000606EB0711EC
:1047D00018F8010000F0D8FB761CF6B2082EF5D3CD
:1047E0000AF10100C1B22046FFF79BFF5FF000060F
:1047F00006EB071101EB0800007A00F0C5FB761C00
:10480000F6B2082EF4D308346D1CE4B2EDB219F8F8
:1048100005000028CBD1C8E7725200084A500008B2
:1048200070477047704710B594B038216846FBF761
:10483000BAFD14210EA8FBF7B6FD0020FDF7CCFB56
:10484000012000900004019002200324CDE9070418
:104850005521CDE90A100C900D9009946846FDF79A
:104860000BFF08B172B6FEE70F20CDE90E04002061
:10487000109011904FF48060129004210EA8FDF763
:1048800091FD002801D072B6FEE714B010BD000003
:104890000248016841F470010160704788ED00E052
:1048A0000148FEF75ABA0000500400200148FEF704
:1048B00054BA0000100300202DE9F04F02682E4B7F
:1048C0002E4E2F4FDFF8BCC02F4C304D4FF0804B99
:1048D00098420BD0584509D0B04207D0B84205D015
:1048E000604503D0A04201D0A84204D122F0700854
:1048F0004A6842EA0802DFF89880DFF89890DFF80B
:1049000098A0984211D058450FD0B0420DD0B8426F
:104910000BD0604509D0A04207D0404505D048459E
:1049200003D0504501D0A84203D122F44076CA6892
:1049300032434E6922F08002324302608A68C262CA
:104940000A688262984209D0A04207D0404505D04B
:10495000484503D0504501D0A84201D109690163FF
:10496000012141610169C90703D0016921F00101F9
:104970000161BDE8F08F0000002C01400004004000
:1049800000080040000C004000340140005001408D
:1049900000400140004401400048014010B58468D7
:1049A00042EA032224F47F440A432243826010BD7A
:1049B0008268034B1A400A4342F007018160704746
:1049C0008FFFCFFF10B5036A046A24F0010404626C
:1049D000846924F0F00444EA021423F00A020A4332
:1049E0008461026210BD10B5036A046A24F01004E9
:1049F0000462846923F0A00324F4704444EA023280
:104A000043EA01118261016210BD000030B5416EC0
:104A1000B9B1026891689268C1F342610B4B520FC1
:104A20009C5CE50003F10804A25CB5FBF2F2A0F87F
:104A30006A205A5C615CD200B2FBF1F1A0F8681008
:104A400030BD0121A0F86A10F8E700007A5800088C
:104A500090F82810090706D501684A68836B22F48C
:104A600000421A434A6090F82810C90706D001682E
:104A70004A68C36A22F400321A434A6090F8281048
:104A8000890706D501684A68036B22F480321A430D
:104A90004A6090F82810490706D501684A68436BB8
:104AA00022F480221A434A6090F82810C90606D5DD
:104AB00001688A68C36B22F480521A438A6090F8B6
:104AC0002810890606D501688A68036C22F4005212
:104AD0001A438A6090F82810490611D501684A687F
:104AE000436C22F480121A434A60416CB1F5801F76
:104AF00006D101684A68836C22F4C0021A434A60F6
:104B000090F82810090606D501684A68C06C22F49E
:104B1000002202434A6070472DE9F843002604460C
:104B2000C0F89060FCF71CFD8046206800684FF0DC
:104B3000200500076FF07E4713D543460022290465
:104B40002046009700F0BCF958B1216851E8000FE9
:104B500020F0800041E80002002AF6D1C4F8885015
:104B600021E020680068400722D5434600224FF428
:104B700080012046009700F0A3F9C8B1216851E8F0
:104B8000000F20F4907041E80002002AF6D120685E
:104B9000083050E8001F21F0010140E80012002A0F
:104BA000F5D1C4F88C5084F884600320BDE8F88304
:104BB000C4F88850C4F88C5044F86C6F6660267650
:104BC0000020F3E710B5806A0021A0F85E10FEF720
:104BD00011FA10BD10B5026852E8001F21F490715F
:104BE00042E80013002BF6D10E4B0268083252E85F
:104BF000001F194042E80014002CF6D1C16E0129B3
:104C000008D1016851E8002F22F0100241E800238A
:104C1000002BF6D12021C0F88C100021C16641671D
:104C200010BD0000FEFFFFEF2DE9F04104460168D2
:104C300080682269E3691043626900251A431043C2
:104C4000DFF84CC20A68934B1A4002430A6020689E
:104C50004168E26821F44051114341602168A06934
:104C6000614501D0226A10438A688B4B1A40024387
:104C70008A602068C16A626A21F00F011143C16233
:104C80008649236886488B420DD1D0F8880010F001
:104C9000030006D0012867D0022854D0032851D140
:104CA00064E001204FE07F498B420BD1D0F88800AF
:104CB00010F00C0047D0042845D0082852D00C280A
:104CC00040D153E078498B420BD1D0F8880010F0E6
:104CD000300038D0102847D0202843D0302831D198
:104CE00044E072498B420BD1D0F8880010F0C0002C
:104CF00029D0402838D0802834D0C02822D135E0AF
:104D00006B498B420ED1D0F8880010F440701AD055
:104D1000B0F5807F28D0B0F5007F23D0B0F5407F7C
:104D200010D123E063450DD1D0F8880010F4406025
:104D300009D0B0F5806F17D0B0F5006F12D0B0F584
:104D4000406F13D010205B4A5B4F00264FF40041A8
:104D5000634539D160B102280DD004280DD0082850
:104D600031D10EE00220EEE70420ECE70820EAE76C
:104D7000FDF726FC03E0114603E0FDF745FC0100CA
:104D80007BD0606A37F810206768B1FBF2F007EB60
:104D90004703834269D8B0EB073F66D80023084633
:104DA0001946FBF789FA090241EA10610202780804
:104DB000101871413A460023FBF77EFA3F4AA0F5EE
:104DC0004071914257D950E0E3694FF6EF788B423A
:104DD0002BD1092849D2DFE800F005080D48254805
:104DE00048480E00FDF7ECFB01E0FDF7FBFB01007E
:104DF00001D142E01146606A37F81000B1FBF0F0D3
:104E00004100606801EB5001B1FBF0F1A1F110002D
:104E100040452AD84FF6F07201EA0200C1F3420180
:104E2000084328E0FDF7F0FBE1E709281DD2DFE8A1
:104E300000F005080D1C1E1C1C1C0E00FDF7C0FB1D
:104E400001E0FDF7CFFB010001D116E01146606AD9
:104E500037F81000B1FBF0F1606801EB5001B1FBD5
:104E6000F0F0A0F11001414504D9012505E0FDF75E
:104E7000CBFBE8E780B22168C8600120A4F86A0093
:104E800024F8680F2846E6602661BDE8F08100003E
:104E900000800040F369FFCFFFF4FF1100380140AC
:104EA000001002400044004000480040004C004018
:104EB000005000400024F40062580008FFFC0F007E
:104EC0002DE9F047994617460D4604464FF0000875
:104ED000089E33E0701C31D0FCF742FBA0EB0900C8
:104EE000B04218D8BEB120680168490726D5802D88
:104EF00024D0402D22D0C169C94309070DD408250B
:104F000005622046FFF766FEC4F8905084F884805E
:104F10000120BDE8F0870320FBE7C069C04300051E
:104F20000CD421684FF4006008622046FFF752FE5F
:104F30002020C4F8900084F88480ECE72068C069E1
:104F400035EA000004D00020B842C3D00020E0E7DA
:104F50000120F9E70148FEF74FB800005C0300208C
:104F6000FEE7000001B584B00121642204A88DE8A9
:104F700007000B46002278210248FCF771FE05B0BD
:104F800000BD00005C02002001B584B00121642254
:104F900004A88DE807000B46402278210248FCF760
:104FA0005FFE05B000BD00005C0200200907090E8D
:104FB000002804DB00F1E02080F80014704700F0C6
:104FC0000F0000F1E02080F8141D7047FCF756FF39
:104FD000FFF729FCFEF794FFFEF764FFFEF718FFCA
:104FE000FEF7E0FFFFF79EF9FFF7E6F8FFF762F93B
:104FF000FFF70EF903211048FCF7DDFC0C210E48E9
:10500000FCF7D9FC4FF400310B48FCF7A3FC4FF43C
:1050100080210948FCF79EFC0748006850F88C1F67
:1050200041F010010160054C002520883C28FCD986
:105030002580FFF7ADF9F8E760010020800000202F
:105040004FF04070E1EE100A7047000000000000D1
:105050000000002F000000000700070000147F146C
:105060007F1400242A7F2A1200626408132300366A
:105070004955225000000503000000001C22410099
:10508000000041221C000014083E08140008083EDD
:105090000808000000A060000008080808080000D8
:1050A00060600000002010080402003E5149453EA7
:1050B0000000427F400000426151494600214145C5
:1050C0004B31001814127F10002745454539003C2C
:1050D0004A494930000171090503003649494936FA
:1050E00000064949291E00003636000000005636E9
:1050F00000000008142241000014141414140000CD
:105100004122140800020151090600324959513E5A
:10511000007C1211127C007F49494936003E414112
:105120004122007F4141221C007F49494941007FC3
:1051300009090901003E4149497A007F0808087FB2
:105140000000417F4100002040413F01007F0814E2
:105150002241007F40404040007F020C027F007FE0
:105160000408107F003E4141413E007F09090906C5
:10517000003E4151215E007F0919294600464949F8
:1051800049310001017F0101003F4040403F001FC5
:105190002040201F003F4038403F00631408146344
:1051A00000070870080700615149454300007F412E
:1051B000410000552A552A55000041417F00000456
:1051C000020102040040404040400000010204008F
:1051D000002054545478007F4844443800384444F4
:1051E000442000384444487F003854545418000880
:1051F0007E0901020018A4A4A47C007F080404789E
:105200000000447D4000004080847D00007F102825
:1052100044000000417F4000007C04180478007CBA
:105220000804047800384444443800FC242424183A
:105230000018242418FC007C080404080048545476
:10524000542000043F444020003C4040207C001C8F
:105250002040201C003C4030403C004428102844A2
:10526000001CA0A0A07C004464544C4414141414EA
:105270001414000000000000000000000000000006
:105280000000000000F800000000000000333000C3
:10529000000000100C06100C0600000000000000CA
:1052A000000040C07840C0784000043F04043F0440
:1052B0000400007088FC08300000001820FF211E48
:1052C0000000F008F000E018000000211C031E217F
:1052D0001E0000F00888700000001E2123241927FA
:1052E000211010160E000000000000000000000059
:1052F0000000000000E01804020000000007182071
:10530000400000020418E0000000004020180700E0
:105310000000404080F0804040000202010F010286
:105320000200000000F0000000000101011F010167
:105330000100000000000000000080B070000000CC
:105340000000000000000000000000010101010158
:1053500001010000000000000000003030000000EB
:1053600000000000000080601804006018060100C2
:10537000000000E010080810E000000F10202010CE
:105380000F00001010F8000000000020203F202037
:1053900000000070080808887000003028242221CE
:1053A0003000003008888848300000182020201184
:1053B0000E000000C02010F8000000070424243F65
:1053C000240000F80888880808000019212020110E
:1053D0000E0000E0108888180000000F1120201136
:1053E0000E0000380808C83808000000003F000020
:1053F00000000070880808887000001C222121220B
:105400001C0000E010080810E0000000312222110A
:105410000F00000000C0C00000000000003030009D
:10542000000000000080000000000000806000001C
:105430000000000080402010080000010204081055
:105440002000404040404040400004040404040464
:105450000400000810204080000000201008040212
:105460000100007048080808F00000000030360114
:105470000000C030C828E810E000071827242314D3
:105480000B000000C038E0000000203C230202278F
:10549000382008F8888888700000203F20202011DC
:1054A0000E00C03008080808380007182020201017
:1054B000080008F808080810E000203F202020100D
:1054C0000F0008F88888E8081000203F20202320DB
:1054D000180008F88888E8081000203F2000030022
:1054E0000000C03008080838000007182020221EDD
:1054F000020008F808000008F808203F21010121F7
:105500003F20000808F8080800000020203F202065
:10551000000000000808F8080800C08080807F00B4
:10552000000008F888C028180800203F200126380D
:10553000200008F8080000000000203F2020202064
:10554000300008F8F800F8F80800203F003F003F5E
:10555000200008F830C00008F808203F2000071895
:105560003F00E01008080810E0000F102020201075
:105570000F0008F808080808F000203F2101010189
:105580000000E01008080810E0000F18242438502C
:105590004F0008F8888888887000203F2000030C9E
:1055A00030200070880808083800003820212122A7
:1055B0001C00180808F8080818000000203F200008
:1055C000000008F808000008F808001F202020202C
:1055D0001F000878880000C83808000007380E014E
:1055E0000000F80800F80008F800033C0700073C3A
:1055F0000300081868808068180820302C03032CEA
:1056000030200838C800C83808000000203F2000BB
:10561000000010080808C83808002038262120207B
:105620001800000000FE020202000000007F40405F
:105630004000000C30C000000000000000010638EF
:10564000C00000020202FE000000004040407F0057
:10565000000000000402020204000000000000003C
:10566000000000000000000000008080808080803A
:105670008080000202040000000000000000000022
:105680000000000080808080000000192422222277
:105690003F2008F8008080000000003F112020110A
:1056A0000E000000008080800000000E11202020ED
:1056B0001100000000808088F800000E11202010EA
:1056C0003F200000808080800000001F22222222D4
:1056D0001300008080F0888888180020203F202058
:1056E00000000000808080808000006B9494949380
:1056F000600008F8008080800000203F210000202A
:105700003F2000809898000000000020203F2020CB
:105710000000000000809898000000C08080807F1A
:10572000000008F8000080808000203F24022D3017
:105730002000000808F8000000000020203F202082
:1057400000008080808080808000203F20003F20FB
:10575000003F8080008080800000203F21000020EA
:105760003F200000808080800000001F202020203B
:105770001F00808000808000000080FFA120201199
:105780000E000000008080808000000E112020A00C
:10579000FF80808080008080800020203F212000CA
:1057A00001000000808080808000003324242424B5
:1057B0001900008080E0808000000000001F202091
:1057C00000008080000000808000001F202020104A
:1057D0003F20808080000080808000010E3008061D
:1057E000010080800080008080800F300C030C302E
:1057F0000F0000808000808080000020312E0E315C
:105800002000808080000080808080818E7018065B
:10581000010000808080808080000021302C2221C7
:10582000300000000000807C020200000000003F09
:10583000404000000000FF00000000000000FF00EA
:1058400000000002027C800000000040403F000099
:105850000000000601010202040400000000000034
:105860000000010002000400060008000A000C000D
:105870001000200040008000000101010103070129
:1058800000000804020408010101000000000000FB
:1058900000000102030406070809000000000102DD
:1058A00003040000C4580008000000209400000019
:1058B000140200085859000894000020740A0000DF
:1058C000300200080000000000000000000000009E
:1058D00000000000000000000000000000000000C8
:1058E0000A000A00000000000000000000000000A4
:1058F00000000000000000000000000000000000A8
:105900000000000000080000000800000000000087
:105910000000000000080000000800000000000077
:105920000000000000000000000000000000000077
:105930000000000000000000500000000000000017
:105940000000000000000000100000000100000046
:08595000000000000024F40037
:04000005080001D915
:00000001FF
